{
  "contractName": "PropertyRegistry",
  "abi": [
    {
      "inputs": [
        {
          "internalType": "uint256",
          "name": "",
          "type": "uint256"
        }
      ],
      "name": "properties",
      "outputs": [
        {
          "internalType": "uint256",
          "name": "id",
          "type": "uint256"
        },
        {
          "internalType": "string",
          "name": "name",
          "type": "string"
        },
        {
          "internalType": "string",
          "name": "description",
          "type": "string"
        },
        {
          "internalType": "string",
          "name": "location",
          "type": "string"
        },
        {
          "internalType": "string",
          "name": "imageCID",
          "type": "string"
        },
        {
          "internalType": "string",
          "name": "legalDocumentsCID",
          "type": "string"
        },
        {
          "internalType": "uint256",
          "name": "totalArea",
          "type": "uint256"
        },
        {
          "internalType": "uint256",
          "name": "pricePerSqFt",
          "type": "uint256"
        },
        {
          "internalType": "address",
          "name": "owner",
          "type": "address"
        },
        {
          "internalType": "enum PropertyRegistry.PropertyType",
          "name": "propertyType",
          "type": "uint8"
        },
        {
          "internalType": "enum PropertyRegistry.PropertyStatus",
          "name": "propertyStatus",
          "type": "uint8"
        }
      ],
      "stateMutability": "view",
      "type": "function",
      "constant": true
    },
    {
      "inputs": [
        {
          "internalType": "uint256",
          "name": "",
          "type": "uint256"
        }
      ],
      "name": "propertyIds",
      "outputs": [
        {
          "internalType": "uint256",
          "name": "",
          "type": "uint256"
        }
      ],
      "stateMutability": "view",
      "type": "function",
      "constant": true
    },
    {
      "inputs": [
        {
          "internalType": "string",
          "name": "_name",
          "type": "string"
        },
        {
          "internalType": "string",
          "name": "_description",
          "type": "string"
        },
        {
          "internalType": "string",
          "name": "_location",
          "type": "string"
        },
        {
          "internalType": "string",
          "name": "_imageCID",
          "type": "string"
        },
        {
          "internalType": "string",
          "name": "_legalDocumentsCID",
          "type": "string"
        },
        {
          "internalType": "uint256",
          "name": "_totalArea",
          "type": "uint256"
        },
        {
          "internalType": "uint256",
          "name": "_pricePerSqFt",
          "type": "uint256"
        },
        {
          "internalType": "enum PropertyRegistry.PropertyType",
          "name": "_propertyType",
          "type": "uint8"
        },
        {
          "internalType": "enum PropertyRegistry.PropertyStatus",
          "name": "_propertyStatus",
          "type": "uint8"
        }
      ],
      "name": "registerProperty",
      "outputs": [],
      "stateMutability": "nonpayable",
      "type": "function"
    }
  ],
  "bytecode": "0x608060405234801561001057600080fd5b50610fb2806100206000396000f3fe608060405234801561001057600080fd5b50600436106100415760003560e01c806312e47a4314610046578063d03b47f414610062578063f7b1080814610092575b600080fd5b610060600480360381019061005b919061082d565b6100cc565b005b61007c60048036038101906100779190610983565b6102f3565b60405161008991906109bf565b60405180910390f35b6100ac60048036038101906100a79190610983565b610317565b6040516100c39b9a99989796959493929190610b59565b60405180910390f35b6000600260008154809291906100e190610c56565b91905055905060006040518061016001604052808381526020018c81526020018b81526020018a81526020018981526020018881526020018781526020018681526020013373ffffffffffffffffffffffffffffffffffffffff16815260200185600181111561015457610153610a9a565b5b815260200184600181111561016c5761016b610a9a565b5b8152509050806000808481526020019081526020016000206000820151816000015560208201518160010190816101a39190610eaa565b5060408201518160020190816101b99190610eaa565b5060608201518160030190816101cf9190610eaa565b5060808201518160040190816101e59190610eaa565b5060a08201518160050190816101fb9190610eaa565b5060c0820151816006015560e082015181600701556101008201518160080160006101000a81548173ffffffffffffffffffffffffffffffffffffffff021916908373ffffffffffffffffffffffffffffffffffffffff1602179055506101208201518160080160146101000a81548160ff0219169083600181111561028457610283610a9a565b5b02179055506101408201518160080160156101000a81548160ff021916908360018111156102b5576102b4610a9a565b5b021790555090505060018290806001815401808255809150506001900390600052602060002001600090919091909150555050505050505050505050565b6001818154811061030357600080fd5b906000526020600020016000915090505481565b600060205280600052604060002060009150905080600001549080600101805461034090610ccd565b80601f016020809104026020016040519081016040528092919081815260200182805461036c90610ccd565b80156103b95780601f1061038e576101008083540402835291602001916103b9565b820191906000526020600020905b81548152906001019060200180831161039c57829003601f168201915b5050505050908060020180546103ce90610ccd565b80601f01602080910402602001604051908101604052809291908181526020018280546103fa90610ccd565b80156104475780601f1061041c57610100808354040283529160200191610447565b820191906000526020600020905b81548152906001019060200180831161042a57829003601f168201915b50505050509080600301805461045c90610ccd565b80601f016020809104026020016040519081016040528092919081815260200182805461048890610ccd565b80156104d55780601f106104aa576101008083540402835291602001916104d5565b820191906000526020600020905b8154815290600101906020018083116104b857829003601f168201915b5050505050908060040180546104ea90610ccd565b80601f016020809104026020016040519081016040528092919081815260200182805461051690610ccd565b80156105635780601f1061053857610100808354040283529160200191610563565b820191906000526020600020905b81548152906001019060200180831161054657829003601f168201915b50505050509080600501805461057890610ccd565b80601f01602080910402602001604051908101604052809291908181526020018280546105a490610ccd565b80156105f15780601f106105c6576101008083540402835291602001916105f1565b820191906000526020600020905b8154815290600101906020018083116105d457829003601f168201915b5050505050908060060154908060070154908060080160009054906101000a900473ffffffffffffffffffffffffffffffffffffffff16908060080160149054906101000a900460ff16908060080160159054906101000a900460ff1690508b565b6000604051905090565b600080fd5b600080fd5b600080fd5b600080fd5b6000601f19601f8301169050919050565b7f4e487b7100000000000000000000000000000000000000000000000000000000600052604160045260246000fd5b6106ba82610671565b810181811067ffffffffffffffff821117156106d9576106d8610682565b5b80604052505050565b60006106ec610653565b90506106f882826106b1565b919050565b600067ffffffffffffffff82111561071857610717610682565b5b61072182610671565b9050602081019050919050565b82818337600083830152505050565b600061075061074b846106fd565b6106e2565b90508281526020810184848401111561076c5761076b61066c565b5b61077784828561072e565b509392505050565b600082601f83011261079457610793610667565b5b81356107a484826020860161073d565b91505092915050565b6000819050919050565b6107c0816107ad565b81146107cb57600080fd5b50565b6000813590506107dd816107b7565b92915050565b600281106107f057600080fd5b50565b600081359050610802816107e3565b92915050565b6002811061081557600080fd5b50565b60008135905061082781610808565b92915050565b60008060008060008060008060006101208a8c0312156108505761084f61065d565b5b60008a013567ffffffffffffffff81111561086e5761086d610662565b5b61087a8c828d0161077f565b99505060208a013567ffffffffffffffff81111561089b5761089a610662565b5b6108a78c828d0161077f565b98505060408a013567ffffffffffffffff8111156108c8576108c7610662565b5b6108d48c828d0161077f565b97505060608a013567ffffffffffffffff8111156108f5576108f4610662565b5b6109018c828d0161077f565b96505060808a013567ffffffffffffffff81111561092257610921610662565b5b61092e8c828d0161077f565b95505060a061093f8c828d016107ce565b94505060c06109508c828d016107ce565b93505060e06109618c828d016107f3565b9250506101006109738c828d01610818565b9150509295985092959850929598565b6000602082840312156109995761099861065d565b5b60006109a7848285016107ce565b91505092915050565b6109b9816107ad565b82525050565b60006020820190506109d460008301846109b0565b92915050565b600081519050919050565b600082825260208201905092915050565b60005b83811015610a145780820151818401526020810190506109f9565b60008484015250505050565b6000610a2b826109da565b610a3581856109e5565b9350610a458185602086016109f6565b610a4e81610671565b840191505092915050565b600073ffffffffffffffffffffffffffffffffffffffff82169050919050565b6000610a8482610a59565b9050919050565b610a9481610a79565b82525050565b7f4e487b7100000000000000000000000000000000000000000000000000000000600052602160045260246000fd5b60028110610ada57610ad9610a9a565b5b50565b6000819050610aeb82610ac9565b919050565b6000610afb82610add565b9050919050565b610b0b81610af0565b82525050565b60028110610b2257610b21610a9a565b5b50565b6000819050610b3382610b11565b919050565b6000610b4382610b25565b9050919050565b610b5381610b38565b82525050565b600061016082019050610b6f600083018e6109b0565b8181036020830152610b81818d610a20565b90508181036040830152610b95818c610a20565b90508181036060830152610ba9818b610a20565b90508181036080830152610bbd818a610a20565b905081810360a0830152610bd18189610a20565b9050610be060c08301886109b0565b610bed60e08301876109b0565b610bfb610100830186610a8b565b610c09610120830185610b02565b610c17610140830184610b4a565b9c9b505050505050505050505050565b7f4e487b7100000000000000000000000000000000000000000000000000000000600052601160045260246000fd5b6000610c61826107ad565b91507fffffffffffffffffffffffffffffffffffffffffffffffffffffffffffffffff8203610c9357610c92610c27565b5b600182019050919050565b7f4e487b7100000000000000000000000000000000000000000000000000000000600052602260045260246000fd5b60006002820490506001821680610ce557607f821691505b602082108103610cf857610cf7610c9e565b5b50919050565b60008190508160005260206000209050919050565b60006020601f8301049050919050565b600082821b905092915050565b600060088302610d607fffffffffffffffffffffffffffffffffffffffffffffffffffffffffffffffff82610d23565b610d6a8683610d23565b95508019841693508086168417925050509392505050565b6000819050919050565b6000610da7610da2610d9d846107ad565b610d82565b6107ad565b9050919050565b6000819050919050565b610dc183610d8c565b610dd5610dcd82610dae565b848454610d30565b825550505050565b600090565b610dea610ddd565b610df5818484610db8565b505050565b5b81811015610e1957610e0e600082610de2565b600181019050610dfb565b5050565b601f821115610e5e57610e2f81610cfe565b610e3884610d13565b81016020851015610e47578190505b610e5b610e5385610d13565b830182610dfa565b50505b505050565b600082821c905092915050565b6000610e8160001984600802610e63565b1980831691505092915050565b6000610e9a8383610e70565b9150826002028217905092915050565b610eb3826109da565b67ffffffffffffffff811115610ecc57610ecb610682565b5b610ed68254610ccd565b610ee1828285610e1d565b600060209050601f831160018114610f145760008415610f02578287015190505b610f0c8582610e8e565b865550610f74565b601f198416610f2286610cfe565b60005b82811015610f4a57848901518255600182019150602085019450602081019050610f25565b86831015610f675784890151610f63601f891682610e70565b8355505b6001600288020188555050505b50505050505056fea26469706673582212206ff13f568ed80178075b5c74147f31f0152d7bca70b10162285c5503b6da332264736f6c63430008130033",
  "immutableReferences": {},
  "source": "pragma solidity ^0.8.19;\n\ncontract PropertyRegistry {\n    enum PropertyType { Residential, Commercial }\n    enum PropertyStatus { ForSale, ForRent }\n\n    struct Property {\n        uint256 id;\n        string name;\n        string description;\n        string location;\n        string imageCID;\n        string legalDocumentsCID;\n        uint256 totalArea;\n        uint256 pricePerSqFt;\n        address owner;\n        PropertyType propertyType;\n        PropertyStatus propertyStatus;\n    }\n\n    mapping(uint256 => Property) public properties;\n    uint256[] public propertyIds;\n    uint256 private nextPropertyId;\n\n    function registerProperty(\n        string memory _name,\n        string memory _description,\n        string memory _location,\n        string memory _imageCID,\n        string memory _legalDocumentsCID,\n        uint256 _totalArea,\n        uint256 _pricePerSqFt,\n        PropertyType _propertyType,\n        PropertyStatus _propertyStatus\n    ) public {\n        uint256 newPropertyId = nextPropertyId++;\n\n        Property memory newProperty = Property({\n            id: newPropertyId,\n            name: _name,\n            description: _description,\n            location: _location,\n            imageCID: _imageCID,\n            legalDocumentsCID: _legalDocumentsCID,\n            totalArea: _totalArea,\n            pricePerSqFt: _pricePerSqFt,\n            owner: msg.sender,\n            propertyType: _propertyType,\n            propertyStatus: _propertyStatus\n        });\n\n        properties[newPropertyId] = newProperty;\n        propertyIds.push(newPropertyId);\n    }\n}\n",
  "sourcePath": "/home/kashif-ghafoor/development/university/fyp/real-chain-world/back-end/contracts/PropertyRegistry.sol",
  "compiler": {
    "name": "solc",
    "version": "0.8.19+commit.7dd6d404.Emscripten.clang"
  },
  "schemaVersion": "3.4.13",
  "updatedAt": "2023-03-29T05:33:05.092Z",
  "networkType": "ethereum",
  "devdoc": {
    "kind": "dev",
    "methods": {},
    "version": 1
  },
  "userdoc": {
    "kind": "user",
    "methods": {},
    "version": 1
  }
}